{
  "abi": [
    {
      "inputs": [],
      "stateMutability": "payable",
      "type": "constructor"
    },
    {
      "anonymous": false,
      "inputs": [
        {
          "indexed": true,
          "internalType": "address",
          "name": "from",
          "type": "address"
        },
        {
          "indexed": false,
          "internalType": "uint256",
          "name": "timestamp",
          "type": "uint256"
        },
        {
          "indexed": false,
          "internalType": "string",
          "name": "message",
          "type": "string"
        },
        {
          "indexed": false,
          "internalType": "string",
          "name": "name",
          "type": "string"
        },
        {
          "indexed": false,
          "internalType": "string",
          "name": "image",
          "type": "string"
        }
      ],
      "name": "newAdd",
      "type": "event"
    },
    {
      "inputs": [],
      "name": "getAdds",
      "outputs": [
        {
          "components": [
            {
              "internalType": "uint256",
              "name": "timestamp",
              "type": "uint256"
            },
            {
              "internalType": "string",
              "name": "name",
              "type": "string"
            },
            {
              "internalType": "string",
              "name": "message",
              "type": "string"
            },
            {
              "internalType": "string",
              "name": "image",
              "type": "string"
            },
            {
              "internalType": "address",
              "name": "sender",
              "type": "address"
            }
          ],
          "internalType": "struct MyContract.Add[]",
          "name": "",
          "type": "tuple[]"
        }
      ],
      "stateMutability": "view",
      "type": "function"
    },
    {
      "inputs": [],
      "name": "getTotalAdds",
      "outputs": [
        {
          "internalType": "uint256",
          "name": "",
          "type": "uint256"
        }
      ],
      "stateMutability": "view",
      "type": "function"
    },
    {
      "inputs": [],
      "name": "owner",
      "outputs": [
        {
          "internalType": "address payable",
          "name": "",
          "type": "address"
        }
      ],
      "stateMutability": "view",
      "type": "function"
    },
    {
      "inputs": [
        {
          "internalType": "string",
          "name": "_message",
          "type": "string"
        },
        {
          "internalType": "string",
          "name": "_name",
          "type": "string"
        },
        {
          "internalType": "string",
          "name": "_image",
          "type": "string"
        }
      ],
      "name": "placeAdd",
      "outputs": [],
      "stateMutability": "payable",
      "type": "function"
    },
    {
      "inputs": [],
      "name": "totalAds",
      "outputs": [
        {
          "internalType": "uint256",
          "name": "",
          "type": "uint256"
        }
      ],
      "stateMutability": "view",
      "type": "function"
    }
  ],
  "devdoc": {
    "kind": "dev",
    "methods": {},
    "version": 1
  },
  "evm": {
    "assembly": "    /* \"Contract.sol\":64:1203  contract MyContract {... */\n  mstore(0x40, 0x80)\n    /* \"Contract.sol\":187:192  owner */\n  0x01\n    /* \"Contract.sol\":187:214  owner = payable(msg.sender) */\n  dup1\n  sload\n  not(sub(shl(0xa0, 0x01), 0x01))\n  and\n    /* \"Contract.sol\":203:213  msg.sender */\n  caller\n    /* \"Contract.sol\":187:214  owner = payable(msg.sender) */\n  or\n  swap1\n  sstore\n    /* \"Contract.sol\":64:1203  contract MyContract {... */\n  dataSize(sub_0)\n  dup1\n  dataOffset(sub_0)\n  0x00\n  codecopy\n  0x00\n  return\nstop\n\nsub_0: assembly {\n        /* \"Contract.sol\":64:1203  contract MyContract {... */\n      mstore(0x40, 0x80)\n      jumpi(tag_1, lt(calldatasize, 0x04))\n      shr(0xe0, calldataload(0x00))\n      dup1\n      0x9f34fa93\n      gt\n      tag_7\n      jumpi\n      dup1\n      0x9f34fa93\n      eq\n      tag_4\n      jumpi\n      dup1\n      0xae613705\n      eq\n      tag_5\n      jumpi\n      dup1\n      0xf65bcfd6\n      eq\n      tag_6\n      jumpi\n      0x00\n      dup1\n      revert\n    tag_7:\n      dup1\n      0x8da5cb5b\n      eq\n      tag_2\n      jumpi\n      dup1\n      0x97b116aa\n      eq\n      tag_3\n      jumpi\n    tag_1:\n      0x00\n      dup1\n      revert\n        /* \"Contract.sol\":120:148  address payable public owner */\n    tag_2:\n      callvalue\n      dup1\n      iszero\n      tag_8\n      jumpi\n      0x00\n      dup1\n      revert\n    tag_8:\n      pop\n      sload(0x01)\n      tag_9\n      swap1\n      sub(shl(0xa0, 0x01), 0x01)\n      and\n      dup2\n      jump\n    tag_9:\n      mload(0x40)\n      sub(shl(0xa0, 0x01), 0x01)\n        /* \"#utility.yul\":194:249   */\n      swap1\n      swap2\n      and\n        /* \"#utility.yul\":176:250   */\n      dup2\n      mstore\n        /* \"#utility.yul\":164:166   */\n      0x20\n        /* \"#utility.yul\":149:167   */\n      add\n        /* \"Contract.sol\":120:148  address payable public owner */\n    tag_11:\n      mload(0x40)\n      dup1\n      swap2\n      sub\n      swap1\n      return\n        /* \"Contract.sol\":716:1201  function placeAdd(string memory _message, string memory _name, string memory _image) payable public {... */\n    tag_3:\n      tag_13\n      tag_14\n      calldatasize\n      0x04\n      tag_15\n      jump\t// in\n    tag_14:\n      tag_16\n      jump\t// in\n    tag_13:\n      stop\n        /* \"Contract.sol\":625:710  function getTotalAdds() public view returns(uint256) {... */\n    tag_4:\n      callvalue\n      dup1\n      iszero\n      tag_17\n      jumpi\n      0x00\n      dup1\n      revert\n    tag_17:\n      pop\n        /* \"Contract.sol\":669:676  uint256 */\n      0x00\n        /* \"Contract.sol\":695:703  totalAds */\n      sload\n        /* \"Contract.sol\":625:710  function getTotalAdds() public view returns(uint256) {... */\n    tag_18:\n      mload(0x40)\n        /* \"#utility.yul\":2011:2036   */\n      swap1\n      dup2\n      mstore\n        /* \"#utility.yul\":1999:2001   */\n      0x20\n        /* \"#utility.yul\":1984:2002   */\n      add\n        /* \"Contract.sol\":625:710  function getTotalAdds() public view returns(uint256) {... */\n      tag_11\n        /* \"#utility.yul\":1865:2042   */\n      jump\n        /* \"Contract.sol\":538:619  function getAdds() public view returns(Add[] memory) {... */\n    tag_5:\n      callvalue\n      dup1\n      iszero\n      tag_22\n      jumpi\n      0x00\n      dup1\n      revert\n    tag_22:\n      pop\n      tag_23\n      tag_24\n      jump\t// in\n    tag_23:\n      mload(0x40)\n      tag_11\n      swap2\n      swap1\n      tag_26\n      jump\t// in\n        /* \"Contract.sol\":91:114  uint256 public totalAds */\n    tag_6:\n      callvalue\n      dup1\n      iszero\n      tag_27\n      jumpi\n      0x00\n      dup1\n      revert\n    tag_27:\n      pop\n      tag_18\n      sload(0x00)\n      dup2\n      jump\n        /* \"Contract.sol\":716:1201  function placeAdd(string memory _message, string memory _name, string memory _image) payable public {... */\n    tag_16:\n        /* \"Contract.sol\":834:843  msg.value */\n      callvalue\n        /* \"Contract.sol\":847:857  0.01 ether */\n      0x2386f26fc10000\n        /* \"Contract.sol\":834:857  msg.value == 0.01 ether */\n      eq\n        /* \"Contract.sol\":826:902  require(msg.value == 0.01 ether, \"You have to pay 0.01 ether to place add.\") */\n      tag_32\n      jumpi\n      mload(0x40)\n      shl(0xe5, 0x461bcd)\n      dup2\n      mstore\n        /* \"#utility.yul\":4321:4323   */\n      0x20\n        /* \"Contract.sol\":826:902  require(msg.value == 0.01 ether, \"You have to pay 0.01 ether to place add.\") */\n      0x04\n      dup3\n      add\n        /* \"#utility.yul\":4303:4324   */\n      mstore\n        /* \"#utility.yul\":4360:4362   */\n      0x28\n        /* \"#utility.yul\":4340:4358   */\n      0x24\n      dup3\n      add\n        /* \"#utility.yul\":4333:4363   */\n      mstore\n        /* \"#utility.yul\":4399:4433   */\n      0x596f75206861766520746f2070617920302e303120657468657220746f20706c\n        /* \"#utility.yul\":4379:4397   */\n      0x44\n      dup3\n      add\n        /* \"#utility.yul\":4372:4434   */\n      mstore\n        /* \"#utility.yul\":4470:4480   */\n      0x616365206164642e000000000000000000000000000000000000000000000000\n        /* \"#utility.yul\":4450:4468   */\n      0x64\n      dup3\n      add\n        /* \"#utility.yul\":4443:4481   */\n      mstore\n        /* \"#utility.yul\":4498:4517   */\n      0x84\n      add\n        /* \"Contract.sol\":826:902  require(msg.value == 0.01 ether, \"You have to pay 0.01 ether to place add.\") */\n    tag_33:\n      mload(0x40)\n      dup1\n      swap2\n      sub\n      swap1\n      revert\n    tag_32:\n        /* \"Contract.sol\":925:926  1 */\n      0x01\n        /* \"Contract.sol\":913:921  totalAds */\n      0x00\n      dup1\n        /* \"Contract.sol\":913:926  totalAds += 1 */\n      dup3\n      dup3\n      sload\n      tag_35\n      swap2\n      swap1\n      tag_36\n      jump\t// in\n    tag_35:\n      swap1\n      swap2\n      sstore\n      pop\n      pop\n        /* \"Contract.sol\":946:1003  Add(block.timestamp, _name, _message, _image, msg.sender) */\n      0x40\n      dup1\n      mload\n      0xa0\n      dup2\n      add\n      dup3\n      mstore\n        /* \"Contract.sol\":950:965  block.timestamp */\n      timestamp\n        /* \"Contract.sol\":946:1003  Add(block.timestamp, _name, _message, _image, msg.sender) */\n      dup2\n      mstore\n      0x20\n      dup1\n      dup3\n      add\n      dup6\n      dup2\n      mstore\n      swap3\n      dup3\n      add\n      dup7\n      swap1\n      mstore\n      0x60\n      dup3\n      add\n      dup5\n      swap1\n      mstore\n        /* \"Contract.sol\":992:1002  msg.sender */\n      caller\n        /* \"Contract.sol\":946:1003  Add(block.timestamp, _name, _message, _image, msg.sender) */\n      0x80\n      dup4\n      add\n      mstore\n        /* \"Contract.sol\":936:940  adds */\n      0x02\n        /* \"Contract.sol\":936:1004  adds.push(Add(block.timestamp, _name, _message, _image, msg.sender)) */\n      dup1\n      sload\n      0x01\n      dup2\n      add\n      dup3\n      sstore\n      0x00\n      swap2\n      swap1\n      swap2\n      mstore\n      dup3\n      mload\n      0x05\n      swap1\n      swap2\n      mul\n      0x405787fa12a823e0f2b7631cc41b3ba8828b3321ca811111fa75cd3aa3bb5ace\n      dup2\n      add\n      swap2\n      dup3\n      sstore\n      swap4\n      mload\n      dup1\n      mload\n        /* \"Contract.sol\":946:1003  Add(block.timestamp, _name, _message, _image, msg.sender) */\n      swap4\n      swap5\n        /* \"Contract.sol\":936:1004  adds.push(Add(block.timestamp, _name, _message, _image, msg.sender)) */\n      swap2\n      swap4\n      tag_38\n      swap4\n      0x405787fa12a823e0f2b7631cc41b3ba8828b3321ca811111fa75cd3aa3bb5acf\n      swap1\n      swap4\n      add\n      swap3\n      swap2\n      swap1\n      swap2\n      add\n      swap1\n      tag_39\n      jump\t// in\n    tag_38:\n      pop\n      0x40\n      dup3\n      add\n      mload\n      dup1\n      mload\n      tag_40\n      swap2\n      0x02\n      dup5\n      add\n      swap2\n      0x20\n      swap1\n      swap2\n      add\n      swap1\n      tag_39\n      jump\t// in\n    tag_40:\n      pop\n      0x60\n      dup3\n      add\n      mload\n      dup1\n      mload\n      tag_41\n      swap2\n      0x03\n      dup5\n      add\n      swap2\n      0x20\n      swap1\n      swap2\n      add\n      swap1\n      tag_39\n      jump\t// in\n    tag_41:\n      pop\n      0x80\n      swap2\n      swap1\n      swap2\n      add\n      mload\n      0x04\n      swap1\n      swap2\n      add\n      dup1\n      sload\n      0xffffffffffffffffffffffff0000000000000000000000000000000000000000\n      and\n      sub(shl(0xa0, 0x01), 0x01)\n      swap3\n      dup4\n      and\n      or\n      swap1\n      sstore\n      0x01\n        /* \"Contract.sol\":1033:1038  owner */\n      sload\n        /* \"Contract.sol\":1033:1065  owner.call{value: msg.value}(\"\") */\n      mload(0x40)\n      0x00\n      swap3\n        /* \"Contract.sol\":1033:1038  owner */\n      swap2\n      swap1\n      swap2\n      and\n      swap1\n        /* \"Contract.sol\":1051:1060  msg.value */\n      callvalue\n      swap1\n      dup4\n        /* \"Contract.sol\":1033:1065  owner.call{value: msg.value}(\"\") */\n      dup2\n      dup2\n      dup2\n        /* \"Contract.sol\":1051:1060  msg.value */\n      dup6\n        /* \"Contract.sol\":1033:1038  owner */\n      dup8\n        /* \"Contract.sol\":1033:1065  owner.call{value: msg.value}(\"\") */\n      gas\n      call\n      swap3\n      pop\n      pop\n      pop\n      returndatasize\n      dup1\n      0x00\n      dup2\n      eq\n      tag_46\n      jumpi\n      mload(0x40)\n      swap2\n      pop\n      and(add(returndatasize, 0x3f), not(0x1f))\n      dup3\n      add\n      0x40\n      mstore\n      returndatasize\n      dup3\n      mstore\n      returndatasize\n      0x00\n      0x20\n      dup5\n      add\n      returndatacopy\n      jump(tag_45)\n    tag_46:\n      0x60\n      swap2\n      pop\n    tag_45:\n      pop\n        /* \"Contract.sol\":1015:1065  (bool success,) = owner.call{value: msg.value}(\"\") */\n      pop\n      swap1\n      pop\n        /* \"Contract.sol\":1083:1090  success */\n      dup1\n        /* \"Contract.sol\":1075:1117  require(success, \"Failed to pay for add.\") */\n      tag_47\n      jumpi\n      mload(0x40)\n      shl(0xe5, 0x461bcd)\n      dup2\n      mstore\n        /* \"#utility.yul\":5170:5172   */\n      0x20\n        /* \"Contract.sol\":1075:1117  require(success, \"Failed to pay for add.\") */\n      0x04\n      dup3\n      add\n        /* \"#utility.yul\":5152:5173   */\n      mstore\n        /* \"#utility.yul\":5209:5211   */\n      0x16\n        /* \"#utility.yul\":5189:5207   */\n      0x24\n      dup3\n      add\n        /* \"#utility.yul\":5182:5212   */\n      mstore\n        /* \"#utility.yul\":5248:5272   */\n      0x4661696c656420746f2070617920666f72206164642e00000000000000000000\n        /* \"#utility.yul\":5228:5246   */\n      0x44\n      dup3\n      add\n        /* \"#utility.yul\":5221:5273   */\n      mstore\n        /* \"#utility.yul\":5290:5308   */\n      0x64\n      add\n        /* \"Contract.sol\":1075:1117  require(success, \"Failed to pay for add.\") */\n      tag_33\n        /* \"#utility.yul\":4968:5314   */\n      jump\n        /* \"Contract.sol\":1075:1117  require(success, \"Failed to pay for add.\") */\n    tag_47:\n        /* \"Contract.sol\":1140:1150  msg.sender */\n      caller\n      sub(shl(0xa0, 0x01), 0x01)\n        /* \"Contract.sol\":1133:1193  newAdd(msg.sender, block.timestamp, _message, _name, _image) */\n      and\n      0xc1b504acc91ef26c45194965a61ec574decd67e5ef7826d718f190ded3a19921\n        /* \"Contract.sol\":1152:1167  block.timestamp */\n      timestamp\n        /* \"Contract.sol\":1169:1177  _message */\n      dup7\n        /* \"Contract.sol\":1179:1184  _name */\n      dup7\n        /* \"Contract.sol\":1186:1192  _image */\n      dup7\n        /* \"Contract.sol\":1133:1193  newAdd(msg.sender, block.timestamp, _message, _name, _image) */\n      mload(0x40)\n      tag_50\n      swap5\n      swap4\n      swap3\n      swap2\n      swap1\n      tag_51\n      jump\t// in\n    tag_50:\n      mload(0x40)\n      dup1\n      swap2\n      sub\n      swap1\n      log2\n        /* \"Contract.sol\":816:1201  {... */\n      pop\n        /* \"Contract.sol\":716:1201  function placeAdd(string memory _message, string memory _name, string memory _image) payable public {... */\n      pop\n      pop\n      pop\n      jump\t// out\n        /* \"Contract.sol\":538:619  function getAdds() public view returns(Add[] memory) {... */\n    tag_24:\n        /* \"Contract.sol\":577:589  Add[] memory */\n      0x60\n        /* \"Contract.sol\":608:612  adds */\n      0x02\n        /* \"Contract.sol\":601:612  return adds */\n      dup1\n      sload\n      dup1\n      0x20\n      mul\n      0x20\n      add\n      mload(0x40)\n      swap1\n      dup2\n      add\n      0x40\n      mstore\n      dup1\n      swap3\n      swap2\n      swap1\n      dup2\n      dup2\n      mstore\n      0x20\n      add\n      0x00\n      swap1\n    tag_54:\n      dup3\n      dup3\n      lt\n      iszero\n      tag_55\n      jumpi\n      dup4\n      dup3\n      swap1\n      0x00\n      mstore\n      keccak256(0x00, 0x20)\n      swap1\n      0x05\n      mul\n      add\n      mload(0x40)\n      dup1\n      0xa0\n      add\n      0x40\n      mstore\n      swap1\n      dup2\n      0x00\n      dup3\n      add\n      sload\n      dup2\n      mstore\n      0x20\n      add\n      0x01\n      dup3\n      add\n      dup1\n      sload\n      tag_57\n      swap1\n      tag_58\n      jump\t// in\n    tag_57:\n      dup1\n      0x1f\n      add\n      0x20\n      dup1\n      swap2\n      div\n      mul\n      0x20\n      add\n      mload(0x40)\n      swap1\n      dup2\n      add\n      0x40\n      mstore\n      dup1\n      swap3\n      swap2\n      swap1\n      dup2\n      dup2\n      mstore\n      0x20\n      add\n      dup3\n      dup1\n      sload\n      tag_59\n      swap1\n      tag_58\n      jump\t// in\n    tag_59:\n      dup1\n      iszero\n      tag_60\n      jumpi\n      dup1\n      0x1f\n      lt\n      tag_61\n      jumpi\n      0x0100\n      dup1\n      dup4\n      sload\n      div\n      mul\n      dup4\n      mstore\n      swap2\n      0x20\n      add\n      swap2\n      jump(tag_60)\n    tag_61:\n      dup3\n      add\n      swap2\n      swap1\n      0x00\n      mstore\n      keccak256(0x00, 0x20)\n      swap1\n    tag_62:\n      dup2\n      sload\n      dup2\n      mstore\n      swap1\n      0x01\n      add\n      swap1\n      0x20\n      add\n      dup1\n      dup4\n      gt\n      tag_62\n      jumpi\n      dup3\n      swap1\n      sub\n      0x1f\n      and\n      dup3\n      add\n      swap2\n    tag_60:\n      pop\n      pop\n      pop\n      pop\n      pop\n      dup2\n      mstore\n      0x20\n      add\n      0x02\n      dup3\n      add\n      dup1\n      sload\n      tag_63\n      swap1\n      tag_58\n      jump\t// in\n    tag_63:\n      dup1\n      0x1f\n      add\n      0x20\n      dup1\n      swap2\n      div\n      mul\n      0x20\n      add\n      mload(0x40)\n      swap1\n      dup2\n      add\n      0x40\n      mstore\n      dup1\n      swap3\n      swap2\n      swap1\n      dup2\n      dup2\n      mstore\n      0x20\n      add\n      dup3\n      dup1\n      sload\n      tag_64\n      swap1\n      tag_58\n      jump\t// in\n    tag_64:\n      dup1\n      iszero\n      tag_65\n      jumpi\n      dup1\n      0x1f\n      lt\n      tag_66\n      jumpi\n      0x0100\n      dup1\n      dup4\n      sload\n      div\n      mul\n      dup4\n      mstore\n      swap2\n      0x20\n      add\n      swap2\n      jump(tag_65)\n    tag_66:\n      dup3\n      add\n      swap2\n      swap1\n      0x00\n      mstore\n      keccak256(0x00, 0x20)\n      swap1\n    tag_67:\n      dup2\n      sload\n      dup2\n      mstore\n      swap1\n      0x01\n      add\n      swap1\n      0x20\n      add\n      dup1\n      dup4\n      gt\n      tag_67\n      jumpi\n      dup3\n      swap1\n      sub\n      0x1f\n      and\n      dup3\n      add\n      swap2\n    tag_65:\n      pop\n      pop\n      pop\n      pop\n      pop\n      dup2\n      mstore\n      0x20\n      add\n      0x03\n      dup3\n      add\n      dup1\n      sload\n      tag_68\n      swap1\n      tag_58\n      jump\t// in\n    tag_68:\n      dup1\n      0x1f\n      add\n      0x20\n      dup1\n      swap2\n      div\n      mul\n      0x20\n      add\n      mload(0x40)\n      swap1\n      dup2\n      add\n      0x40\n      mstore\n      dup1\n      swap3\n      swap2\n      swap1\n      dup2\n      dup2\n      mstore\n      0x20\n      add\n      dup3\n      dup1\n      sload\n      tag_69\n      swap1\n      tag_58\n      jump\t// in\n    tag_69:\n      dup1\n      iszero\n      tag_70\n      jumpi\n      dup1\n      0x1f\n      lt\n      tag_71\n      jumpi\n      0x0100\n      dup1\n      dup4\n      sload\n      div\n      mul\n      dup4\n      mstore\n      swap2\n      0x20\n      add\n      swap2\n      jump(tag_70)\n    tag_71:\n      dup3\n      add\n      swap2\n      swap1\n      0x00\n      mstore\n      keccak256(0x00, 0x20)\n      swap1\n    tag_72:\n      dup2\n      sload\n      dup2\n      mstore\n      swap1\n      0x01\n      add\n      swap1\n      0x20\n      add\n      dup1\n      dup4\n      gt\n      tag_72\n      jumpi\n      dup3\n      swap1\n      sub\n      0x1f\n      and\n      dup3\n      add\n      swap2\n    tag_70:\n      pop\n      pop\n      pop\n      swap2\n      dup4\n      mstore\n      pop\n      pop\n      0x04\n      swap2\n      swap1\n      swap2\n      add\n      sload\n      sub(shl(0xa0, 0x01), 0x01)\n      and\n      0x20\n      swap2\n      dup3\n      add\n      mstore\n      swap1\n      dup3\n      mstore\n      0x01\n      swap3\n      swap1\n      swap3\n      add\n      swap2\n      add\n      jump(tag_54)\n    tag_55:\n      pop\n      pop\n      pop\n      pop\n      swap1\n      pop\n        /* \"Contract.sol\":538:619  function getAdds() public view returns(Add[] memory) {... */\n      swap1\n      jump\t// out\n    tag_39:\n      dup3\n      dup1\n      sload\n      tag_73\n      swap1\n      tag_58\n      jump\t// in\n    tag_73:\n      swap1\n      0x00\n      mstore\n      keccak256(0x00, 0x20)\n      swap1\n      0x1f\n      add\n      0x20\n      swap1\n      div\n      dup2\n      add\n      swap3\n      dup3\n      tag_75\n      jumpi\n      0x00\n      dup6\n      sstore\n      jump(tag_78)\n    tag_75:\n      dup3\n      0x1f\n      lt\n      tag_76\n      jumpi\n      dup1\n      mload\n      not(0xff)\n      and\n      dup4\n      dup1\n      add\n      or\n      dup6\n      sstore\n      jump(tag_78)\n    tag_76:\n      dup3\n      dup1\n      add\n      0x01\n      add\n      dup6\n      sstore\n      dup3\n      iszero\n      tag_78\n      jumpi\n      swap2\n      dup3\n      add\n    tag_77:\n      dup3\n      dup2\n      gt\n      iszero\n      tag_78\n      jumpi\n      dup3\n      mload\n      dup3\n      sstore\n      swap2\n      0x20\n      add\n      swap2\n      swap1\n      0x01\n      add\n      swap1\n      jump(tag_77)\n    tag_78:\n      pop\n      tag_79\n      swap3\n      swap2\n      pop\n      tag_80\n      jump\t// in\n    tag_79:\n      pop\n      swap1\n      jump\t// out\n    tag_80:\n    tag_81:\n      dup1\n      dup3\n      gt\n      iszero\n      tag_79\n      jumpi\n      0x00\n      dup2\n      sstore\n      0x01\n      add\n      jump(tag_81)\n        /* \"#utility.yul\":261:388   */\n    tag_83:\n        /* \"#utility.yul\":322:332   */\n      0x4e487b71\n        /* \"#utility.yul\":317:320   */\n      0xe0\n        /* \"#utility.yul\":313:333   */\n      shl\n        /* \"#utility.yul\":310:311   */\n      0x00\n        /* \"#utility.yul\":303:334   */\n      mstore\n        /* \"#utility.yul\":353:357   */\n      0x41\n        /* \"#utility.yul\":350:351   */\n      0x04\n        /* \"#utility.yul\":343:358   */\n      mstore\n        /* \"#utility.yul\":377:381   */\n      0x24\n        /* \"#utility.yul\":374:375   */\n      0x00\n        /* \"#utility.yul\":367:382   */\n      revert\n        /* \"#utility.yul\":393:1112   */\n    tag_84:\n        /* \"#utility.yul\":436:441   */\n      0x00\n        /* \"#utility.yul\":489:492   */\n      dup3\n        /* \"#utility.yul\":482:486   */\n      0x1f\n        /* \"#utility.yul\":474:480   */\n      dup4\n        /* \"#utility.yul\":470:487   */\n      add\n        /* \"#utility.yul\":466:493   */\n      slt\n        /* \"#utility.yul\":456:511   */\n      tag_90\n      jumpi\n        /* \"#utility.yul\":507:508   */\n      0x00\n        /* \"#utility.yul\":504:505   */\n      dup1\n        /* \"#utility.yul\":497:509   */\n      revert\n        /* \"#utility.yul\":456:511   */\n    tag_90:\n        /* \"#utility.yul\":543:549   */\n      dup2\n        /* \"#utility.yul\":530:550   */\n      calldataload\n        /* \"#utility.yul\":569:587   */\n      0xffffffffffffffff\n        /* \"#utility.yul\":606:608   */\n      dup1\n        /* \"#utility.yul\":602:604   */\n      dup3\n        /* \"#utility.yul\":599:609   */\n      gt\n        /* \"#utility.yul\":596:632   */\n      iszero\n      tag_92\n      jumpi\n        /* \"#utility.yul\":612:630   */\n      tag_92\n      tag_83\n      jump\t// in\n    tag_92:\n        /* \"#utility.yul\":687:689   */\n      0x40\n        /* \"#utility.yul\":681:690   */\n      mload\n        /* \"#utility.yul\":655:657   */\n      0x1f\n        /* \"#utility.yul\":741:754   */\n      dup4\n      add\n      not(0x1f)\n        /* \"#utility.yul\":737:759   */\n      swap1\n      dup2\n      and\n        /* \"#utility.yul\":761:763   */\n      0x3f\n        /* \"#utility.yul\":733:764   */\n      add\n        /* \"#utility.yul\":729:769   */\n      and\n        /* \"#utility.yul\":717:770   */\n      dup2\n      add\n      swap1\n        /* \"#utility.yul\":785:803   */\n      dup3\n      dup3\n      gt\n        /* \"#utility.yul\":805:827   */\n      dup2\n      dup4\n      lt\n        /* \"#utility.yul\":782:828   */\n      or\n        /* \"#utility.yul\":779:851   */\n      iszero\n      tag_94\n      jumpi\n        /* \"#utility.yul\":831:849   */\n      tag_94\n      tag_83\n      jump\t// in\n    tag_94:\n        /* \"#utility.yul\":871:881   */\n      dup2\n        /* \"#utility.yul\":867:869   */\n      0x40\n        /* \"#utility.yul\":860:882   */\n      mstore\n        /* \"#utility.yul\":906:908   */\n      dup4\n        /* \"#utility.yul\":898:904   */\n      dup2\n        /* \"#utility.yul\":891:909   */\n      mstore\n        /* \"#utility.yul\":952:955   */\n      dup7\n        /* \"#utility.yul\":945:949   */\n      0x20\n        /* \"#utility.yul\":940:942   */\n      dup6\n        /* \"#utility.yul\":932:938   */\n      dup9\n        /* \"#utility.yul\":928:943   */\n      add\n        /* \"#utility.yul\":924:950   */\n      add\n        /* \"#utility.yul\":921:956   */\n      gt\n        /* \"#utility.yul\":918:973   */\n      iszero\n      tag_95\n      jumpi\n        /* \"#utility.yul\":969:970   */\n      0x00\n        /* \"#utility.yul\":966:967   */\n      dup1\n        /* \"#utility.yul\":959:971   */\n      revert\n        /* \"#utility.yul\":918:973   */\n    tag_95:\n        /* \"#utility.yul\":1033:1035   */\n      dup4\n        /* \"#utility.yul\":1026:1030   */\n      0x20\n        /* \"#utility.yul\":1018:1024   */\n      dup8\n        /* \"#utility.yul\":1014:1031   */\n      add\n        /* \"#utility.yul\":1007:1011   */\n      0x20\n        /* \"#utility.yul\":999:1005   */\n      dup4\n        /* \"#utility.yul\":995:1012   */\n      add\n        /* \"#utility.yul\":982:1036   */\n      calldatacopy\n        /* \"#utility.yul\":1080:1081   */\n      0x00\n        /* \"#utility.yul\":1073:1077   */\n      0x20\n        /* \"#utility.yul\":1068:1070   */\n      dup6\n        /* \"#utility.yul\":1060:1066   */\n      dup4\n        /* \"#utility.yul\":1056:1071   */\n      add\n        /* \"#utility.yul\":1052:1078   */\n      add\n        /* \"#utility.yul\":1045:1082   */\n      mstore\n        /* \"#utility.yul\":1100:1106   */\n      dup1\n        /* \"#utility.yul\":1091:1106   */\n      swap5\n      pop\n      pop\n      pop\n      pop\n      pop\n        /* \"#utility.yul\":393:1112   */\n      swap3\n      swap2\n      pop\n      pop\n      jump\t// out\n        /* \"#utility.yul\":1117:1860   */\n    tag_15:\n        /* \"#utility.yul\":1224:1230   */\n      0x00\n        /* \"#utility.yul\":1232:1238   */\n      dup1\n        /* \"#utility.yul\":1240:1246   */\n      0x00\n        /* \"#utility.yul\":1293:1295   */\n      0x60\n        /* \"#utility.yul\":1281:1290   */\n      dup5\n        /* \"#utility.yul\":1272:1279   */\n      dup7\n        /* \"#utility.yul\":1268:1291   */\n      sub\n        /* \"#utility.yul\":1264:1296   */\n      slt\n        /* \"#utility.yul\":1261:1313   */\n      iszero\n      tag_97\n      jumpi\n        /* \"#utility.yul\":1309:1310   */\n      0x00\n        /* \"#utility.yul\":1306:1307   */\n      dup1\n        /* \"#utility.yul\":1299:1311   */\n      revert\n        /* \"#utility.yul\":1261:1313   */\n    tag_97:\n        /* \"#utility.yul\":1349:1358   */\n      dup4\n        /* \"#utility.yul\":1336:1359   */\n      calldataload\n        /* \"#utility.yul\":1378:1396   */\n      0xffffffffffffffff\n        /* \"#utility.yul\":1419:1421   */\n      dup1\n        /* \"#utility.yul\":1411:1417   */\n      dup3\n        /* \"#utility.yul\":1408:1422   */\n      gt\n        /* \"#utility.yul\":1405:1439   */\n      iszero\n      tag_98\n      jumpi\n        /* \"#utility.yul\":1435:1436   */\n      0x00\n        /* \"#utility.yul\":1432:1433   */\n      dup1\n        /* \"#utility.yul\":1425:1437   */\n      revert\n        /* \"#utility.yul\":1405:1439   */\n    tag_98:\n        /* \"#utility.yul\":1458:1508   */\n      tag_99\n        /* \"#utility.yul\":1500:1507   */\n      dup8\n        /* \"#utility.yul\":1491:1497   */\n      dup4\n        /* \"#utility.yul\":1480:1489   */\n      dup9\n        /* \"#utility.yul\":1476:1498   */\n      add\n        /* \"#utility.yul\":1458:1508   */\n      tag_84\n      jump\t// in\n    tag_99:\n        /* \"#utility.yul\":1448:1508   */\n      swap5\n      pop\n        /* \"#utility.yul\":1561:1563   */\n      0x20\n        /* \"#utility.yul\":1550:1559   */\n      dup7\n        /* \"#utility.yul\":1546:1564   */\n      add\n        /* \"#utility.yul\":1533:1565   */\n      calldataload\n        /* \"#utility.yul\":1517:1565   */\n      swap2\n      pop\n        /* \"#utility.yul\":1590:1592   */\n      dup1\n        /* \"#utility.yul\":1580:1588   */\n      dup3\n        /* \"#utility.yul\":1577:1593   */\n      gt\n        /* \"#utility.yul\":1574:1610   */\n      iszero\n      tag_100\n      jumpi\n        /* \"#utility.yul\":1606:1607   */\n      0x00\n        /* \"#utility.yul\":1603:1604   */\n      dup1\n        /* \"#utility.yul\":1596:1608   */\n      revert\n        /* \"#utility.yul\":1574:1610   */\n    tag_100:\n        /* \"#utility.yul\":1629:1681   */\n      tag_101\n        /* \"#utility.yul\":1673:1680   */\n      dup8\n        /* \"#utility.yul\":1662:1670   */\n      dup4\n        /* \"#utility.yul\":1651:1660   */\n      dup9\n        /* \"#utility.yul\":1647:1671   */\n      add\n        /* \"#utility.yul\":1629:1681   */\n      tag_84\n      jump\t// in\n    tag_101:\n        /* \"#utility.yul\":1619:1681   */\n      swap4\n      pop\n        /* \"#utility.yul\":1734:1736   */\n      0x40\n        /* \"#utility.yul\":1723:1732   */\n      dup7\n        /* \"#utility.yul\":1719:1737   */\n      add\n        /* \"#utility.yul\":1706:1738   */\n      calldataload\n        /* \"#utility.yul\":1690:1738   */\n      swap2\n      pop\n        /* \"#utility.yul\":1763:1765   */\n      dup1\n        /* \"#utility.yul\":1753:1761   */\n      dup3\n        /* \"#utility.yul\":1750:1766   */\n      gt\n        /* \"#utility.yul\":1747:1783   */\n      iszero\n      tag_102\n      jumpi\n        /* \"#utility.yul\":1779:1780   */\n      0x00\n        /* \"#utility.yul\":1776:1777   */\n      dup1\n        /* \"#utility.yul\":1769:1781   */\n      revert\n        /* \"#utility.yul\":1747:1783   */\n    tag_102:\n      pop\n        /* \"#utility.yul\":1802:1854   */\n      tag_103\n        /* \"#utility.yul\":1846:1853   */\n      dup7\n        /* \"#utility.yul\":1835:1843   */\n      dup3\n        /* \"#utility.yul\":1824:1833   */\n      dup8\n        /* \"#utility.yul\":1820:1844   */\n      add\n        /* \"#utility.yul\":1802:1854   */\n      tag_84\n      jump\t// in\n    tag_103:\n        /* \"#utility.yul\":1792:1854   */\n      swap2\n      pop\n      pop\n        /* \"#utility.yul\":1117:1860   */\n      swap3\n      pop\n      swap3\n      pop\n      swap3\n      jump\t// out\n        /* \"#utility.yul\":2047:2519   */\n    tag_85:\n        /* \"#utility.yul\":2089:2092   */\n      0x00\n        /* \"#utility.yul\":2127:2132   */\n      dup2\n        /* \"#utility.yul\":2121:2133   */\n      mload\n        /* \"#utility.yul\":2154:2160   */\n      dup1\n        /* \"#utility.yul\":2149:2152   */\n      dup5\n        /* \"#utility.yul\":2142:2161   */\n      mstore\n        /* \"#utility.yul\":2179:2180   */\n      0x00\n        /* \"#utility.yul\":2189:2351   */\n    tag_106:\n        /* \"#utility.yul\":2203:2209   */\n      dup2\n        /* \"#utility.yul\":2200:2201   */\n      dup2\n        /* \"#utility.yul\":2197:2210   */\n      lt\n        /* \"#utility.yul\":2189:2351   */\n      iszero\n      tag_108\n      jumpi\n        /* \"#utility.yul\":2265:2269   */\n      0x20\n        /* \"#utility.yul\":2321:2334   */\n      dup2\n      dup6\n      add\n        /* \"#utility.yul\":2317:2339   */\n      dup2\n      add\n        /* \"#utility.yul\":2311:2340   */\n      mload\n        /* \"#utility.yul\":2293:2304   */\n      dup7\n      dup4\n      add\n        /* \"#utility.yul\":2289:2309   */\n      dup3\n      add\n        /* \"#utility.yul\":2282:2341   */\n      mstore\n        /* \"#utility.yul\":2218:2230   */\n      add\n        /* \"#utility.yul\":2189:2351   */\n      jump(tag_106)\n    tag_108:\n        /* \"#utility.yul\":2369:2375   */\n      dup2\n        /* \"#utility.yul\":2366:2367   */\n      dup2\n        /* \"#utility.yul\":2363:2376   */\n      gt\n        /* \"#utility.yul\":2360:2447   */\n      iszero\n      tag_109\n      jumpi\n        /* \"#utility.yul\":2435:2436   */\n      0x00\n        /* \"#utility.yul\":2428:2432   */\n      0x20\n        /* \"#utility.yul\":2419:2425   */\n      dup4\n        /* \"#utility.yul\":2414:2417   */\n      dup8\n        /* \"#utility.yul\":2410:2426   */\n      add\n        /* \"#utility.yul\":2406:2433   */\n      add\n        /* \"#utility.yul\":2399:2437   */\n      mstore\n        /* \"#utility.yul\":2360:2447   */\n    tag_109:\n      pop\n        /* \"#utility.yul\":2501:2503   */\n      0x1f\n        /* \"#utility.yul\":2480:2495   */\n      add\n      not(0x1f)\n        /* \"#utility.yul\":2476:2505   */\n      and\n        /* \"#utility.yul\":2467:2506   */\n      swap3\n      swap1\n      swap3\n      add\n        /* \"#utility.yul\":2508:2512   */\n      0x20\n        /* \"#utility.yul\":2463:2513   */\n      add\n      swap3\n        /* \"#utility.yul\":2047:2519   */\n      swap2\n      pop\n      pop\n      jump\t// out\n        /* \"#utility.yul\":2524:4114   */\n    tag_26:\n        /* \"#utility.yul\":2704:2708   */\n      0x00\n        /* \"#utility.yul\":2733:2735   */\n      0x20\n        /* \"#utility.yul\":2773:2775   */\n      dup1\n        /* \"#utility.yul\":2762:2771   */\n      dup4\n        /* \"#utility.yul\":2758:2776   */\n      add\n        /* \"#utility.yul\":2803:2805   */\n      dup2\n        /* \"#utility.yul\":2792:2801   */\n      dup5\n        /* \"#utility.yul\":2785:2806   */\n      mstore\n        /* \"#utility.yul\":2826:2832   */\n      dup1\n        /* \"#utility.yul\":2861:2867   */\n      dup6\n        /* \"#utility.yul\":2855:2868   */\n      mload\n        /* \"#utility.yul\":2892:2898   */\n      dup1\n        /* \"#utility.yul\":2884:2890   */\n      dup4\n        /* \"#utility.yul\":2877:2899   */\n      mstore\n        /* \"#utility.yul\":2918:2920   */\n      0x40\n        /* \"#utility.yul\":2908:2920   */\n      swap3\n      pop\n        /* \"#utility.yul\":2951:2953   */\n      dup3\n        /* \"#utility.yul\":2940:2949   */\n      dup7\n        /* \"#utility.yul\":2936:2954   */\n      add\n        /* \"#utility.yul\":2929:2954   */\n      swap2\n      pop\n        /* \"#utility.yul\":3013:3015   */\n      dup3\n        /* \"#utility.yul\":3003:3009   */\n      dup2\n        /* \"#utility.yul\":3000:3001   */\n      0x05\n        /* \"#utility.yul\":2996:3010   */\n      shl\n        /* \"#utility.yul\":2985:2994   */\n      dup8\n        /* \"#utility.yul\":2981:3011   */\n      add\n        /* \"#utility.yul\":2977:3016   */\n      add\n        /* \"#utility.yul\":3051:3053   */\n      dup5\n        /* \"#utility.yul\":3043:3049   */\n      dup9\n        /* \"#utility.yul\":3039:3054   */\n      add\n        /* \"#utility.yul\":3072:3073   */\n      0x00\n        /* \"#utility.yul\":3082:4085   */\n    tag_111:\n        /* \"#utility.yul\":3096:3102   */\n      dup4\n        /* \"#utility.yul\":3093:3094   */\n      dup2\n        /* \"#utility.yul\":3090:3103   */\n      lt\n        /* \"#utility.yul\":3082:4085   */\n      iszero\n      tag_113\n      jumpi\n        /* \"#utility.yul\":3189:3191   */\n      0x3f\n        /* \"#utility.yul\":3185:3192   */\n      not\n        /* \"#utility.yul\":3173:3182   */\n      dup10\n        /* \"#utility.yul\":3165:3171   */\n      dup5\n        /* \"#utility.yul\":3161:3183   */\n      sub\n        /* \"#utility.yul\":3157:3193   */\n      add\n        /* \"#utility.yul\":3152:3155   */\n      dup6\n        /* \"#utility.yul\":3145:3194   */\n      mstore\n        /* \"#utility.yul\":3223:3229   */\n      dup2\n        /* \"#utility.yul\":3217:3230   */\n      mload\n        /* \"#utility.yul\":3253:3257   */\n      0xa0\n        /* \"#utility.yul\":3291:3293   */\n      dup2\n        /* \"#utility.yul\":3285:3294   */\n      mload\n        /* \"#utility.yul\":3277:3283   */\n      dup6\n        /* \"#utility.yul\":3270:3295   */\n      mstore\n        /* \"#utility.yul\":3342:3344   */\n      dup9\n        /* \"#utility.yul\":3338:3340   */\n      dup3\n        /* \"#utility.yul\":3334:3345   */\n      add\n        /* \"#utility.yul\":3328:3346   */\n      mload\n        /* \"#utility.yul\":3383:3385   */\n      dup2\n        /* \"#utility.yul\":3378:3380   */\n      dup11\n        /* \"#utility.yul\":3370:3376   */\n      dup8\n        /* \"#utility.yul\":3366:3381   */\n      add\n        /* \"#utility.yul\":3359:3386   */\n      mstore\n        /* \"#utility.yul\":3413:3461   */\n      tag_114\n        /* \"#utility.yul\":3457:3459   */\n      dup3\n        /* \"#utility.yul\":3449:3455   */\n      dup8\n        /* \"#utility.yul\":3445:3460   */\n      add\n        /* \"#utility.yul\":3431:3443   */\n      dup3\n        /* \"#utility.yul\":3413:3461   */\n      tag_85\n      jump\t// in\n    tag_114:\n        /* \"#utility.yul\":3399:3461   */\n      swap2\n      pop\n      pop\n        /* \"#utility.yul\":3510:3512   */\n      dup8\n        /* \"#utility.yul\":3506:3508   */\n      dup3\n        /* \"#utility.yul\":3502:3513   */\n      add\n        /* \"#utility.yul\":3496:3514   */\n      mload\n        /* \"#utility.yul\":3563:3569   */\n      dup6\n        /* \"#utility.yul\":3555:3561   */\n      dup3\n        /* \"#utility.yul\":3551:3570   */\n      sub\n        /* \"#utility.yul\":3546:3548   */\n      dup10\n        /* \"#utility.yul\":3538:3544   */\n      dup8\n        /* \"#utility.yul\":3534:3549   */\n      add\n        /* \"#utility.yul\":3527:3571   */\n      mstore\n        /* \"#utility.yul\":3598:3639   */\n      tag_115\n        /* \"#utility.yul\":3632:3638   */\n      dup3\n        /* \"#utility.yul\":3616:3630   */\n      dup3\n        /* \"#utility.yul\":3598:3639   */\n      tag_85\n      jump\t// in\n    tag_115:\n        /* \"#utility.yul\":3584:3639   */\n      swap2\n      pop\n      pop\n        /* \"#utility.yul\":3662:3666   */\n      0x60\n        /* \"#utility.yul\":3715:3717   */\n      dup1\n        /* \"#utility.yul\":3711:3713   */\n      dup4\n        /* \"#utility.yul\":3707:3718   */\n      add\n        /* \"#utility.yul\":3701:3719   */\n      mload\n        /* \"#utility.yul\":3768:3774   */\n      dup7\n        /* \"#utility.yul\":3760:3766   */\n      dup4\n        /* \"#utility.yul\":3756:3775   */\n      sub\n        /* \"#utility.yul\":3751:3753   */\n      dup3\n        /* \"#utility.yul\":3743:3749   */\n      dup9\n        /* \"#utility.yul\":3739:3754   */\n      add\n        /* \"#utility.yul\":3732:3776   */\n      mstore\n        /* \"#utility.yul\":3803:3844   */\n      tag_116\n        /* \"#utility.yul\":3837:3843   */\n      dup4\n        /* \"#utility.yul\":3821:3835   */\n      dup3\n        /* \"#utility.yul\":3803:3844   */\n      tag_85\n      jump\t// in\n    tag_116:\n        /* \"#utility.yul\":3867:3871   */\n      0x80\n        /* \"#utility.yul\":3918:3929   */\n      swap5\n      dup6\n      add\n        /* \"#utility.yul\":3912:3930   */\n      mload\n      sub(shl(0xa0, 0x01), 0x01)\n        /* \"#utility.yul\":3908:3975   */\n      and\n        /* \"#utility.yul\":3891:3906   */\n      swap8\n      swap1\n      swap5\n      add\n        /* \"#utility.yul\":3884:3976   */\n      swap7\n      swap1\n      swap7\n      mstore\n      pop\n      pop\n        /* \"#utility.yul\":4063:4075   */\n      swap5\n      dup8\n      add\n      swap5\n        /* \"#utility.yul\":3789:3844   */\n      swap3\n      pop\n        /* \"#utility.yul\":4028:4043   */\n      swap1\n      dup7\n      add\n      swap1\n        /* \"#utility.yul\":3118:3119   */\n      0x01\n        /* \"#utility.yul\":3111:3120   */\n      add\n        /* \"#utility.yul\":3082:4085   */\n      jump(tag_111)\n    tag_113:\n      pop\n        /* \"#utility.yul\":4102:4108   */\n      swap1\n      swap9\n        /* \"#utility.yul\":2524:4114   */\n      swap8\n      pop\n      pop\n      pop\n      pop\n      pop\n      pop\n      pop\n      pop\n      jump\t// out\n        /* \"#utility.yul\":4528:4753   */\n    tag_36:\n        /* \"#utility.yul\":4568:4571   */\n      0x00\n        /* \"#utility.yul\":4599:4600   */\n      dup3\n        /* \"#utility.yul\":4595:4601   */\n      not\n        /* \"#utility.yul\":4592:4593   */\n      dup3\n        /* \"#utility.yul\":4589:4602   */\n      gt\n        /* \"#utility.yul\":4586:4722   */\n      iszero\n      tag_119\n      jumpi\n        /* \"#utility.yul\":4644:4654   */\n      0x4e487b71\n        /* \"#utility.yul\":4639:4642   */\n      0xe0\n        /* \"#utility.yul\":4635:4655   */\n      shl\n        /* \"#utility.yul\":4632:4633   */\n      0x00\n        /* \"#utility.yul\":4625:4656   */\n      mstore\n        /* \"#utility.yul\":4679:4683   */\n      0x11\n        /* \"#utility.yul\":4676:4677   */\n      0x04\n        /* \"#utility.yul\":4669:4684   */\n      mstore\n        /* \"#utility.yul\":4707:4711   */\n      0x24\n        /* \"#utility.yul\":4704:4705   */\n      0x00\n        /* \"#utility.yul\":4697:4712   */\n      revert\n        /* \"#utility.yul\":4586:4722   */\n    tag_119:\n      pop\n        /* \"#utility.yul\":4738:4747   */\n      add\n      swap1\n        /* \"#utility.yul\":4528:4753   */\n      jump\t// out\n        /* \"#utility.yul\":5319:5938   */\n    tag_51:\n        /* \"#utility.yul\":5592:5598   */\n      dup5\n        /* \"#utility.yul\":5581:5590   */\n      dup2\n        /* \"#utility.yul\":5574:5599   */\n      mstore\n        /* \"#utility.yul\":5635:5638   */\n      0x80\n        /* \"#utility.yul\":5630:5632   */\n      0x20\n        /* \"#utility.yul\":5619:5628   */\n      dup3\n        /* \"#utility.yul\":5615:5633   */\n      add\n        /* \"#utility.yul\":5608:5639   */\n      mstore\n        /* \"#utility.yul\":5555:5559   */\n      0x00\n        /* \"#utility.yul\":5662:5708   */\n      tag_123\n        /* \"#utility.yul\":5703:5706   */\n      0x80\n        /* \"#utility.yul\":5692:5701   */\n      dup4\n        /* \"#utility.yul\":5688:5707   */\n      add\n        /* \"#utility.yul\":5680:5686   */\n      dup7\n        /* \"#utility.yul\":5662:5708   */\n      tag_85\n      jump\t// in\n    tag_123:\n        /* \"#utility.yul\":5756:5765   */\n      dup3\n        /* \"#utility.yul\":5748:5754   */\n      dup2\n        /* \"#utility.yul\":5744:5766   */\n      sub\n        /* \"#utility.yul\":5739:5741   */\n      0x40\n        /* \"#utility.yul\":5728:5737   */\n      dup5\n        /* \"#utility.yul\":5724:5742   */\n      add\n        /* \"#utility.yul\":5717:5767   */\n      mstore\n        /* \"#utility.yul\":5790:5823   */\n      tag_124\n        /* \"#utility.yul\":5816:5822   */\n      dup2\n        /* \"#utility.yul\":5808:5814   */\n      dup7\n        /* \"#utility.yul\":5790:5823   */\n      tag_85\n      jump\t// in\n    tag_124:\n        /* \"#utility.yul\":5776:5823   */\n      swap1\n      pop\n        /* \"#utility.yul\":5871:5880   */\n      dup3\n        /* \"#utility.yul\":5863:5869   */\n      dup2\n        /* \"#utility.yul\":5859:5881   */\n      sub\n        /* \"#utility.yul\":5854:5856   */\n      0x60\n        /* \"#utility.yul\":5843:5852   */\n      dup5\n        /* \"#utility.yul\":5839:5857   */\n      add\n        /* \"#utility.yul\":5832:5882   */\n      mstore\n        /* \"#utility.yul\":5899:5932   */\n      tag_125\n        /* \"#utility.yul\":5925:5931   */\n      dup2\n        /* \"#utility.yul\":5917:5923   */\n      dup6\n        /* \"#utility.yul\":5899:5932   */\n      tag_85\n      jump\t// in\n    tag_125:\n        /* \"#utility.yul\":5891:5932   */\n      swap8\n        /* \"#utility.yul\":5319:5938   */\n      swap7\n      pop\n      pop\n      pop\n      pop\n      pop\n      pop\n      pop\n      jump\t// out\n        /* \"#utility.yul\":5943:6323   */\n    tag_58:\n        /* \"#utility.yul\":6022:6023   */\n      0x01\n        /* \"#utility.yul\":6018:6030   */\n      dup2\n      dup2\n      shr\n      swap1\n        /* \"#utility.yul\":6065:6077   */\n      dup3\n      and\n      dup1\n        /* \"#utility.yul\":6086:6147   */\n      tag_127\n      jumpi\n        /* \"#utility.yul\":6140:6144   */\n      0x7f\n        /* \"#utility.yul\":6132:6138   */\n      dup3\n        /* \"#utility.yul\":6128:6145   */\n      and\n        /* \"#utility.yul\":6118:6145   */\n      swap2\n      pop\n        /* \"#utility.yul\":6086:6147   */\n    tag_127:\n        /* \"#utility.yul\":6193:6195   */\n      0x20\n        /* \"#utility.yul\":6185:6191   */\n      dup3\n        /* \"#utility.yul\":6182:6196   */\n      lt\n        /* \"#utility.yul\":6162:6180   */\n      dup2\n        /* \"#utility.yul\":6159:6197   */\n      sub\n        /* \"#utility.yul\":6156:6317   */\n      tag_128\n      jumpi\n        /* \"#utility.yul\":6239:6249   */\n      0x4e487b71\n        /* \"#utility.yul\":6234:6237   */\n      0xe0\n        /* \"#utility.yul\":6230:6250   */\n      shl\n        /* \"#utility.yul\":6227:6228   */\n      0x00\n        /* \"#utility.yul\":6220:6251   */\n      mstore\n        /* \"#utility.yul\":6274:6278   */\n      0x22\n        /* \"#utility.yul\":6271:6272   */\n      0x04\n        /* \"#utility.yul\":6264:6279   */\n      mstore\n        /* \"#utility.yul\":6302:6306   */\n      0x24\n        /* \"#utility.yul\":6299:6300   */\n      0x00\n        /* \"#utility.yul\":6292:6307   */\n      revert\n        /* \"#utility.yul\":6156:6317   */\n    tag_128:\n      pop\n        /* \"#utility.yul\":5943:6323   */\n      swap2\n      swap1\n      pop\n      jump\t// out\n\n    auxdata: 0xa2646970667358221220edd315f18c49a2d8b7db2590397b3d3ecc28624b91adbf7ca2916a4bd0651d6564736f6c634300080d0033\n}\n",
    "bytecode": {
      "linkReferences": {},
      "object": "6080604052600180546001600160a01b03191633179055610988806100256000396000f3fe60806040526004361061005a5760003560e01c80639f34fa93116100435780639f34fa93146100b1578063ae613705146100d0578063f65bcfd6146100f257600080fd5b80638da5cb5b1461005f57806397b116aa1461009c575b600080fd5b34801561006b57600080fd5b5060015461007f906001600160a01b031681565b6040516001600160a01b0390911681526020015b60405180910390f35b6100af6100aa366004610713565b610108565b005b3480156100bd57600080fd5b506000545b604051908152602001610093565b3480156100dc57600080fd5b506100e56103a2565b60405161009391906107e8565b3480156100fe57600080fd5b506100c260005481565b34662386f26fc10000146101895760405162461bcd60e51b815260206004820152602860248201527f596f75206861766520746f2070617920302e303120657468657220746f20706c60448201527f616365206164642e00000000000000000000000000000000000000000000000060648201526084015b60405180910390fd5b600160008082825461019b91906108a8565b90915550506040805160a08101825242815260208082018581529282018690526060820184905233608083015260028054600181018255600091909152825160059091027f405787fa12a823e0f2b7631cc41b3ba8828b3321ca811111fa75cd3aa3bb5ace81019182559351805193949193610240937f405787fa12a823e0f2b7631cc41b3ba8828b3321ca811111fa75cd3aa3bb5acf9093019291909101906105d7565b506040820151805161025c9160028401916020909101906105d7565b50606082015180516102789160038401916020909101906105d7565b5060809190910151600490910180547fffffffffffffffffffffffff0000000000000000000000000000000000000000166001600160a01b03928316179055600154604051600092919091169034908381818185875af1925050503d80600081146102ff576040519150601f19603f3d011682016040523d82523d6000602084013e610304565b606091505b50509050806103555760405162461bcd60e51b815260206004820152601660248201527f4661696c656420746f2070617920666f72206164642e000000000000000000006044820152606401610180565b336001600160a01b03167fc1b504acc91ef26c45194965a61ec574decd67e5ef7826d718f190ded3a199214286868660405161039494939291906108ce565b60405180910390a250505050565b60606002805480602002602001604051908101604052809291908181526020016000905b828210156105ce57838290600052602060002090600502016040518060a00160405290816000820154815260200160018201805461040390610918565b80601f016020809104026020016040519081016040528092919081815260200182805461042f90610918565b801561047c5780601f106104515761010080835404028352916020019161047c565b820191906000526020600020905b81548152906001019060200180831161045f57829003601f168201915b5050505050815260200160028201805461049590610918565b80601f01602080910402602001604051908101604052809291908181526020018280546104c190610918565b801561050e5780601f106104e35761010080835404028352916020019161050e565b820191906000526020600020905b8154815290600101906020018083116104f157829003601f168201915b5050505050815260200160038201805461052790610918565b80601f016020809104026020016040519081016040528092919081815260200182805461055390610918565b80156105a05780601f10610575576101008083540402835291602001916105a0565b820191906000526020600020905b81548152906001019060200180831161058357829003601f168201915b5050509183525050600491909101546001600160a01b031660209182015290825260019290920191016103c6565b50505050905090565b8280546105e390610918565b90600052602060002090601f016020900481019282610605576000855561064b565b82601f1061061e57805160ff191683800117855561064b565b8280016001018555821561064b579182015b8281111561064b578251825591602001919060010190610630565b5061065792915061065b565b5090565b5b80821115610657576000815560010161065c565b634e487b7160e01b600052604160045260246000fd5b600082601f83011261069757600080fd5b813567ffffffffffffffff808211156106b2576106b2610670565b604051601f8301601f19908116603f011681019082821181831017156106da576106da610670565b816040528381528660208588010111156106f357600080fd5b836020870160208301376000602085830101528094505050505092915050565b60008060006060848603121561072857600080fd5b833567ffffffffffffffff8082111561074057600080fd5b61074c87838801610686565b9450602086013591508082111561076257600080fd5b61076e87838801610686565b9350604086013591508082111561078457600080fd5b5061079186828701610686565b9150509250925092565b6000815180845260005b818110156107c1576020818501810151868301820152016107a5565b818111156107d3576000602083870101525b50601f01601f19169290920160200192915050565b60006020808301818452808551808352604092508286019150828160051b87010184880160005b8381101561089a57603f19898403018552815160a08151855288820151818a87015261083d8287018261079b565b9150508782015185820389870152610855828261079b565b9150506060808301518683038288015261086f838261079b565b6080948501516001600160a01b0316979094019690965250509487019492509086019060010161080f565b509098975050505050505050565b600082198211156108c957634e487b7160e01b600052601160045260246000fd5b500190565b8481526080602082015260006108e7608083018661079b565b82810360408401526108f9818661079b565b9050828103606084015261090d818561079b565b979650505050505050565b600181811c9082168061092c57607f821691505b60208210810361094c57634e487b7160e01b600052602260045260246000fd5b5091905056fea2646970667358221220edd315f18c49a2d8b7db2590397b3d3ecc28624b91adbf7ca2916a4bd0651d6564736f6c634300080d0033",
      "opcodes": "PUSH1 0x80 PUSH1 0x40 MSTORE PUSH1 0x1 DUP1 SLOAD PUSH1 0x1 PUSH1 0x1 PUSH1 0xA0 SHL SUB NOT AND CALLER OR SWAP1 SSTORE PUSH2 0x988 DUP1 PUSH2 0x25 PUSH1 0x0 CODECOPY PUSH1 0x0 RETURN INVALID PUSH1 0x80 PUSH1 0x40 MSTORE PUSH1 0x4 CALLDATASIZE LT PUSH2 0x5A JUMPI PUSH1 0x0 CALLDATALOAD PUSH1 0xE0 SHR DUP1 PUSH4 0x9F34FA93 GT PUSH2 0x43 JUMPI DUP1 PUSH4 0x9F34FA93 EQ PUSH2 0xB1 JUMPI DUP1 PUSH4 0xAE613705 EQ PUSH2 0xD0 JUMPI DUP1 PUSH4 0xF65BCFD6 EQ PUSH2 0xF2 JUMPI PUSH1 0x0 DUP1 REVERT JUMPDEST DUP1 PUSH4 0x8DA5CB5B EQ PUSH2 0x5F JUMPI DUP1 PUSH4 0x97B116AA EQ PUSH2 0x9C JUMPI JUMPDEST PUSH1 0x0 DUP1 REVERT JUMPDEST CALLVALUE DUP1 ISZERO PUSH2 0x6B JUMPI PUSH1 0x0 DUP1 REVERT JUMPDEST POP PUSH1 0x1 SLOAD PUSH2 0x7F SWAP1 PUSH1 0x1 PUSH1 0x1 PUSH1 0xA0 SHL SUB AND DUP2 JUMP JUMPDEST PUSH1 0x40 MLOAD PUSH1 0x1 PUSH1 0x1 PUSH1 0xA0 SHL SUB SWAP1 SWAP2 AND DUP2 MSTORE PUSH1 0x20 ADD JUMPDEST PUSH1 0x40 MLOAD DUP1 SWAP2 SUB SWAP1 RETURN JUMPDEST PUSH2 0xAF PUSH2 0xAA CALLDATASIZE PUSH1 0x4 PUSH2 0x713 JUMP JUMPDEST PUSH2 0x108 JUMP JUMPDEST STOP JUMPDEST CALLVALUE DUP1 ISZERO PUSH2 0xBD JUMPI PUSH1 0x0 DUP1 REVERT JUMPDEST POP PUSH1 0x0 SLOAD JUMPDEST PUSH1 0x40 MLOAD SWAP1 DUP2 MSTORE PUSH1 0x20 ADD PUSH2 0x93 JUMP JUMPDEST CALLVALUE DUP1 ISZERO PUSH2 0xDC JUMPI PUSH1 0x0 DUP1 REVERT JUMPDEST POP PUSH2 0xE5 PUSH2 0x3A2 JUMP JUMPDEST PUSH1 0x40 MLOAD PUSH2 0x93 SWAP2 SWAP1 PUSH2 0x7E8 JUMP JUMPDEST CALLVALUE DUP1 ISZERO PUSH2 0xFE JUMPI PUSH1 0x0 DUP1 REVERT JUMPDEST POP PUSH2 0xC2 PUSH1 0x0 SLOAD DUP2 JUMP JUMPDEST CALLVALUE PUSH7 0x2386F26FC10000 EQ PUSH2 0x189 JUMPI PUSH1 0x40 MLOAD PUSH3 0x461BCD PUSH1 0xE5 SHL DUP2 MSTORE PUSH1 0x20 PUSH1 0x4 DUP3 ADD MSTORE PUSH1 0x28 PUSH1 0x24 DUP3 ADD MSTORE PUSH32 0x596F75206861766520746F2070617920302E303120657468657220746F20706C PUSH1 0x44 DUP3 ADD MSTORE PUSH32 0x616365206164642E000000000000000000000000000000000000000000000000 PUSH1 0x64 DUP3 ADD MSTORE PUSH1 0x84 ADD JUMPDEST PUSH1 0x40 MLOAD DUP1 SWAP2 SUB SWAP1 REVERT JUMPDEST PUSH1 0x1 PUSH1 0x0 DUP1 DUP3 DUP3 SLOAD PUSH2 0x19B SWAP2 SWAP1 PUSH2 0x8A8 JUMP JUMPDEST SWAP1 SWAP2 SSTORE POP POP PUSH1 0x40 DUP1 MLOAD PUSH1 0xA0 DUP2 ADD DUP3 MSTORE TIMESTAMP DUP2 MSTORE PUSH1 0x20 DUP1 DUP3 ADD DUP6 DUP2 MSTORE SWAP3 DUP3 ADD DUP7 SWAP1 MSTORE PUSH1 0x60 DUP3 ADD DUP5 SWAP1 MSTORE CALLER PUSH1 0x80 DUP4 ADD MSTORE PUSH1 0x2 DUP1 SLOAD PUSH1 0x1 DUP2 ADD DUP3 SSTORE PUSH1 0x0 SWAP2 SWAP1 SWAP2 MSTORE DUP3 MLOAD PUSH1 0x5 SWAP1 SWAP2 MUL PUSH32 0x405787FA12A823E0F2B7631CC41B3BA8828B3321CA811111FA75CD3AA3BB5ACE DUP2 ADD SWAP2 DUP3 SSTORE SWAP4 MLOAD DUP1 MLOAD SWAP4 SWAP5 SWAP2 SWAP4 PUSH2 0x240 SWAP4 PUSH32 0x405787FA12A823E0F2B7631CC41B3BA8828B3321CA811111FA75CD3AA3BB5ACF SWAP1 SWAP4 ADD SWAP3 SWAP2 SWAP1 SWAP2 ADD SWAP1 PUSH2 0x5D7 JUMP JUMPDEST POP PUSH1 0x40 DUP3 ADD MLOAD DUP1 MLOAD PUSH2 0x25C SWAP2 PUSH1 0x2 DUP5 ADD SWAP2 PUSH1 0x20 SWAP1 SWAP2 ADD SWAP1 PUSH2 0x5D7 JUMP JUMPDEST POP PUSH1 0x60 DUP3 ADD MLOAD DUP1 MLOAD PUSH2 0x278 SWAP2 PUSH1 0x3 DUP5 ADD SWAP2 PUSH1 0x20 SWAP1 SWAP2 ADD SWAP1 PUSH2 0x5D7 JUMP JUMPDEST POP PUSH1 0x80 SWAP2 SWAP1 SWAP2 ADD MLOAD PUSH1 0x4 SWAP1 SWAP2 ADD DUP1 SLOAD PUSH32 0xFFFFFFFFFFFFFFFFFFFFFFFF0000000000000000000000000000000000000000 AND PUSH1 0x1 PUSH1 0x1 PUSH1 0xA0 SHL SUB SWAP3 DUP4 AND OR SWAP1 SSTORE PUSH1 0x1 SLOAD PUSH1 0x40 MLOAD PUSH1 0x0 SWAP3 SWAP2 SWAP1 SWAP2 AND SWAP1 CALLVALUE SWAP1 DUP4 DUP2 DUP2 DUP2 DUP6 DUP8 GAS CALL SWAP3 POP POP POP RETURNDATASIZE DUP1 PUSH1 0x0 DUP2 EQ PUSH2 0x2FF JUMPI PUSH1 0x40 MLOAD SWAP2 POP PUSH1 0x1F NOT PUSH1 0x3F RETURNDATASIZE ADD AND DUP3 ADD PUSH1 0x40 MSTORE RETURNDATASIZE DUP3 MSTORE RETURNDATASIZE PUSH1 0x0 PUSH1 0x20 DUP5 ADD RETURNDATACOPY PUSH2 0x304 JUMP JUMPDEST PUSH1 0x60 SWAP2 POP JUMPDEST POP POP SWAP1 POP DUP1 PUSH2 0x355 JUMPI PUSH1 0x40 MLOAD PUSH3 0x461BCD PUSH1 0xE5 SHL DUP2 MSTORE PUSH1 0x20 PUSH1 0x4 DUP3 ADD MSTORE PUSH1 0x16 PUSH1 0x24 DUP3 ADD MSTORE PUSH32 0x4661696C656420746F2070617920666F72206164642E00000000000000000000 PUSH1 0x44 DUP3 ADD MSTORE PUSH1 0x64 ADD PUSH2 0x180 JUMP JUMPDEST CALLER PUSH1 0x1 PUSH1 0x1 PUSH1 0xA0 SHL SUB AND PUSH32 0xC1B504ACC91EF26C45194965A61EC574DECD67E5EF7826D718F190DED3A19921 TIMESTAMP DUP7 DUP7 DUP7 PUSH1 0x40 MLOAD PUSH2 0x394 SWAP5 SWAP4 SWAP3 SWAP2 SWAP1 PUSH2 0x8CE JUMP JUMPDEST PUSH1 0x40 MLOAD DUP1 SWAP2 SUB SWAP1 LOG2 POP POP POP POP JUMP JUMPDEST PUSH1 0x60 PUSH1 0x2 DUP1 SLOAD DUP1 PUSH1 0x20 MUL PUSH1 0x20 ADD PUSH1 0x40 MLOAD SWAP1 DUP2 ADD PUSH1 0x40 MSTORE DUP1 SWAP3 SWAP2 SWAP1 DUP2 DUP2 MSTORE PUSH1 0x20 ADD PUSH1 0x0 SWAP1 JUMPDEST DUP3 DUP3 LT ISZERO PUSH2 0x5CE JUMPI DUP4 DUP3 SWAP1 PUSH1 0x0 MSTORE PUSH1 0x20 PUSH1 0x0 KECCAK256 SWAP1 PUSH1 0x5 MUL ADD PUSH1 0x40 MLOAD DUP1 PUSH1 0xA0 ADD PUSH1 0x40 MSTORE SWAP1 DUP2 PUSH1 0x0 DUP3 ADD SLOAD DUP2 MSTORE PUSH1 0x20 ADD PUSH1 0x1 DUP3 ADD DUP1 SLOAD PUSH2 0x403 SWAP1 PUSH2 0x918 JUMP JUMPDEST DUP1 PUSH1 0x1F ADD PUSH1 0x20 DUP1 SWAP2 DIV MUL PUSH1 0x20 ADD PUSH1 0x40 MLOAD SWAP1 DUP2 ADD PUSH1 0x40 MSTORE DUP1 SWAP3 SWAP2 SWAP1 DUP2 DUP2 MSTORE PUSH1 0x20 ADD DUP3 DUP1 SLOAD PUSH2 0x42F SWAP1 PUSH2 0x918 JUMP JUMPDEST DUP1 ISZERO PUSH2 0x47C JUMPI DUP1 PUSH1 0x1F LT PUSH2 0x451 JUMPI PUSH2 0x100 DUP1 DUP4 SLOAD DIV MUL DUP4 MSTORE SWAP2 PUSH1 0x20 ADD SWAP2 PUSH2 0x47C JUMP JUMPDEST DUP3 ADD SWAP2 SWAP1 PUSH1 0x0 MSTORE PUSH1 0x20 PUSH1 0x0 KECCAK256 SWAP1 JUMPDEST DUP2 SLOAD DUP2 MSTORE SWAP1 PUSH1 0x1 ADD SWAP1 PUSH1 0x20 ADD DUP1 DUP4 GT PUSH2 0x45F JUMPI DUP3 SWAP1 SUB PUSH1 0x1F AND DUP3 ADD SWAP2 JUMPDEST POP POP POP POP POP DUP2 MSTORE PUSH1 0x20 ADD PUSH1 0x2 DUP3 ADD DUP1 SLOAD PUSH2 0x495 SWAP1 PUSH2 0x918 JUMP JUMPDEST DUP1 PUSH1 0x1F ADD PUSH1 0x20 DUP1 SWAP2 DIV MUL PUSH1 0x20 ADD PUSH1 0x40 MLOAD SWAP1 DUP2 ADD PUSH1 0x40 MSTORE DUP1 SWAP3 SWAP2 SWAP1 DUP2 DUP2 MSTORE PUSH1 0x20 ADD DUP3 DUP1 SLOAD PUSH2 0x4C1 SWAP1 PUSH2 0x918 JUMP JUMPDEST DUP1 ISZERO PUSH2 0x50E JUMPI DUP1 PUSH1 0x1F LT PUSH2 0x4E3 JUMPI PUSH2 0x100 DUP1 DUP4 SLOAD DIV MUL DUP4 MSTORE SWAP2 PUSH1 0x20 ADD SWAP2 PUSH2 0x50E JUMP JUMPDEST DUP3 ADD SWAP2 SWAP1 PUSH1 0x0 MSTORE PUSH1 0x20 PUSH1 0x0 KECCAK256 SWAP1 JUMPDEST DUP2 SLOAD DUP2 MSTORE SWAP1 PUSH1 0x1 ADD SWAP1 PUSH1 0x20 ADD DUP1 DUP4 GT PUSH2 0x4F1 JUMPI DUP3 SWAP1 SUB PUSH1 0x1F AND DUP3 ADD SWAP2 JUMPDEST POP POP POP POP POP DUP2 MSTORE PUSH1 0x20 ADD PUSH1 0x3 DUP3 ADD DUP1 SLOAD PUSH2 0x527 SWAP1 PUSH2 0x918 JUMP JUMPDEST DUP1 PUSH1 0x1F ADD PUSH1 0x20 DUP1 SWAP2 DIV MUL PUSH1 0x20 ADD PUSH1 0x40 MLOAD SWAP1 DUP2 ADD PUSH1 0x40 MSTORE DUP1 SWAP3 SWAP2 SWAP1 DUP2 DUP2 MSTORE PUSH1 0x20 ADD DUP3 DUP1 SLOAD PUSH2 0x553 SWAP1 PUSH2 0x918 JUMP JUMPDEST DUP1 ISZERO PUSH2 0x5A0 JUMPI DUP1 PUSH1 0x1F LT PUSH2 0x575 JUMPI PUSH2 0x100 DUP1 DUP4 SLOAD DIV MUL DUP4 MSTORE SWAP2 PUSH1 0x20 ADD SWAP2 PUSH2 0x5A0 JUMP JUMPDEST DUP3 ADD SWAP2 SWAP1 PUSH1 0x0 MSTORE PUSH1 0x20 PUSH1 0x0 KECCAK256 SWAP1 JUMPDEST DUP2 SLOAD DUP2 MSTORE SWAP1 PUSH1 0x1 ADD SWAP1 PUSH1 0x20 ADD DUP1 DUP4 GT PUSH2 0x583 JUMPI DUP3 SWAP1 SUB PUSH1 0x1F AND DUP3 ADD SWAP2 JUMPDEST POP POP POP SWAP2 DUP4 MSTORE POP POP PUSH1 0x4 SWAP2 SWAP1 SWAP2 ADD SLOAD PUSH1 0x1 PUSH1 0x1 PUSH1 0xA0 SHL SUB AND PUSH1 0x20 SWAP2 DUP3 ADD MSTORE SWAP1 DUP3 MSTORE PUSH1 0x1 SWAP3 SWAP1 SWAP3 ADD SWAP2 ADD PUSH2 0x3C6 JUMP JUMPDEST POP POP POP POP SWAP1 POP SWAP1 JUMP JUMPDEST DUP3 DUP1 SLOAD PUSH2 0x5E3 SWAP1 PUSH2 0x918 JUMP JUMPDEST SWAP1 PUSH1 0x0 MSTORE PUSH1 0x20 PUSH1 0x0 KECCAK256 SWAP1 PUSH1 0x1F ADD PUSH1 0x20 SWAP1 DIV DUP2 ADD SWAP3 DUP3 PUSH2 0x605 JUMPI PUSH1 0x0 DUP6 SSTORE PUSH2 0x64B JUMP JUMPDEST DUP3 PUSH1 0x1F LT PUSH2 0x61E JUMPI DUP1 MLOAD PUSH1 0xFF NOT AND DUP4 DUP1 ADD OR DUP6 SSTORE PUSH2 0x64B JUMP JUMPDEST DUP3 DUP1 ADD PUSH1 0x1 ADD DUP6 SSTORE DUP3 ISZERO PUSH2 0x64B JUMPI SWAP2 DUP3 ADD JUMPDEST DUP3 DUP2 GT ISZERO PUSH2 0x64B JUMPI DUP3 MLOAD DUP3 SSTORE SWAP2 PUSH1 0x20 ADD SWAP2 SWAP1 PUSH1 0x1 ADD SWAP1 PUSH2 0x630 JUMP JUMPDEST POP PUSH2 0x657 SWAP3 SWAP2 POP PUSH2 0x65B JUMP JUMPDEST POP SWAP1 JUMP JUMPDEST JUMPDEST DUP1 DUP3 GT ISZERO PUSH2 0x657 JUMPI PUSH1 0x0 DUP2 SSTORE PUSH1 0x1 ADD PUSH2 0x65C JUMP JUMPDEST PUSH4 0x4E487B71 PUSH1 0xE0 SHL PUSH1 0x0 MSTORE PUSH1 0x41 PUSH1 0x4 MSTORE PUSH1 0x24 PUSH1 0x0 REVERT JUMPDEST PUSH1 0x0 DUP3 PUSH1 0x1F DUP4 ADD SLT PUSH2 0x697 JUMPI PUSH1 0x0 DUP1 REVERT JUMPDEST DUP2 CALLDATALOAD PUSH8 0xFFFFFFFFFFFFFFFF DUP1 DUP3 GT ISZERO PUSH2 0x6B2 JUMPI PUSH2 0x6B2 PUSH2 0x670 JUMP JUMPDEST PUSH1 0x40 MLOAD PUSH1 0x1F DUP4 ADD PUSH1 0x1F NOT SWAP1 DUP2 AND PUSH1 0x3F ADD AND DUP2 ADD SWAP1 DUP3 DUP3 GT DUP2 DUP4 LT OR ISZERO PUSH2 0x6DA JUMPI PUSH2 0x6DA PUSH2 0x670 JUMP JUMPDEST DUP2 PUSH1 0x40 MSTORE DUP4 DUP2 MSTORE DUP7 PUSH1 0x20 DUP6 DUP9 ADD ADD GT ISZERO PUSH2 0x6F3 JUMPI PUSH1 0x0 DUP1 REVERT JUMPDEST DUP4 PUSH1 0x20 DUP8 ADD PUSH1 0x20 DUP4 ADD CALLDATACOPY PUSH1 0x0 PUSH1 0x20 DUP6 DUP4 ADD ADD MSTORE DUP1 SWAP5 POP POP POP POP POP SWAP3 SWAP2 POP POP JUMP JUMPDEST PUSH1 0x0 DUP1 PUSH1 0x0 PUSH1 0x60 DUP5 DUP7 SUB SLT ISZERO PUSH2 0x728 JUMPI PUSH1 0x0 DUP1 REVERT JUMPDEST DUP4 CALLDATALOAD PUSH8 0xFFFFFFFFFFFFFFFF DUP1 DUP3 GT ISZERO PUSH2 0x740 JUMPI PUSH1 0x0 DUP1 REVERT JUMPDEST PUSH2 0x74C DUP8 DUP4 DUP9 ADD PUSH2 0x686 JUMP JUMPDEST SWAP5 POP PUSH1 0x20 DUP7 ADD CALLDATALOAD SWAP2 POP DUP1 DUP3 GT ISZERO PUSH2 0x762 JUMPI PUSH1 0x0 DUP1 REVERT JUMPDEST PUSH2 0x76E DUP8 DUP4 DUP9 ADD PUSH2 0x686 JUMP JUMPDEST SWAP4 POP PUSH1 0x40 DUP7 ADD CALLDATALOAD SWAP2 POP DUP1 DUP3 GT ISZERO PUSH2 0x784 JUMPI PUSH1 0x0 DUP1 REVERT JUMPDEST POP PUSH2 0x791 DUP7 DUP3 DUP8 ADD PUSH2 0x686 JUMP JUMPDEST SWAP2 POP POP SWAP3 POP SWAP3 POP SWAP3 JUMP JUMPDEST PUSH1 0x0 DUP2 MLOAD DUP1 DUP5 MSTORE PUSH1 0x0 JUMPDEST DUP2 DUP2 LT ISZERO PUSH2 0x7C1 JUMPI PUSH1 0x20 DUP2 DUP6 ADD DUP2 ADD MLOAD DUP7 DUP4 ADD DUP3 ADD MSTORE ADD PUSH2 0x7A5 JUMP JUMPDEST DUP2 DUP2 GT ISZERO PUSH2 0x7D3 JUMPI PUSH1 0x0 PUSH1 0x20 DUP4 DUP8 ADD ADD MSTORE JUMPDEST POP PUSH1 0x1F ADD PUSH1 0x1F NOT AND SWAP3 SWAP1 SWAP3 ADD PUSH1 0x20 ADD SWAP3 SWAP2 POP POP JUMP JUMPDEST PUSH1 0x0 PUSH1 0x20 DUP1 DUP4 ADD DUP2 DUP5 MSTORE DUP1 DUP6 MLOAD DUP1 DUP4 MSTORE PUSH1 0x40 SWAP3 POP DUP3 DUP7 ADD SWAP2 POP DUP3 DUP2 PUSH1 0x5 SHL DUP8 ADD ADD DUP5 DUP9 ADD PUSH1 0x0 JUMPDEST DUP4 DUP2 LT ISZERO PUSH2 0x89A JUMPI PUSH1 0x3F NOT DUP10 DUP5 SUB ADD DUP6 MSTORE DUP2 MLOAD PUSH1 0xA0 DUP2 MLOAD DUP6 MSTORE DUP9 DUP3 ADD MLOAD DUP2 DUP11 DUP8 ADD MSTORE PUSH2 0x83D DUP3 DUP8 ADD DUP3 PUSH2 0x79B JUMP JUMPDEST SWAP2 POP POP DUP8 DUP3 ADD MLOAD DUP6 DUP3 SUB DUP10 DUP8 ADD MSTORE PUSH2 0x855 DUP3 DUP3 PUSH2 0x79B JUMP JUMPDEST SWAP2 POP POP PUSH1 0x60 DUP1 DUP4 ADD MLOAD DUP7 DUP4 SUB DUP3 DUP9 ADD MSTORE PUSH2 0x86F DUP4 DUP3 PUSH2 0x79B JUMP JUMPDEST PUSH1 0x80 SWAP5 DUP6 ADD MLOAD PUSH1 0x1 PUSH1 0x1 PUSH1 0xA0 SHL SUB AND SWAP8 SWAP1 SWAP5 ADD SWAP7 SWAP1 SWAP7 MSTORE POP POP SWAP5 DUP8 ADD SWAP5 SWAP3 POP SWAP1 DUP7 ADD SWAP1 PUSH1 0x1 ADD PUSH2 0x80F JUMP JUMPDEST POP SWAP1 SWAP9 SWAP8 POP POP POP POP POP POP POP POP JUMP JUMPDEST PUSH1 0x0 DUP3 NOT DUP3 GT ISZERO PUSH2 0x8C9 JUMPI PUSH4 0x4E487B71 PUSH1 0xE0 SHL PUSH1 0x0 MSTORE PUSH1 0x11 PUSH1 0x4 MSTORE PUSH1 0x24 PUSH1 0x0 REVERT JUMPDEST POP ADD SWAP1 JUMP JUMPDEST DUP5 DUP2 MSTORE PUSH1 0x80 PUSH1 0x20 DUP3 ADD MSTORE PUSH1 0x0 PUSH2 0x8E7 PUSH1 0x80 DUP4 ADD DUP7 PUSH2 0x79B JUMP JUMPDEST DUP3 DUP2 SUB PUSH1 0x40 DUP5 ADD MSTORE PUSH2 0x8F9 DUP2 DUP7 PUSH2 0x79B JUMP JUMPDEST SWAP1 POP DUP3 DUP2 SUB PUSH1 0x60 DUP5 ADD MSTORE PUSH2 0x90D DUP2 DUP6 PUSH2 0x79B JUMP JUMPDEST SWAP8 SWAP7 POP POP POP POP POP POP POP JUMP JUMPDEST PUSH1 0x1 DUP2 DUP2 SHR SWAP1 DUP3 AND DUP1 PUSH2 0x92C JUMPI PUSH1 0x7F DUP3 AND SWAP2 POP JUMPDEST PUSH1 0x20 DUP3 LT DUP2 SUB PUSH2 0x94C JUMPI PUSH4 0x4E487B71 PUSH1 0xE0 SHL PUSH1 0x0 MSTORE PUSH1 0x22 PUSH1 0x4 MSTORE PUSH1 0x24 PUSH1 0x0 REVERT JUMPDEST POP SWAP2 SWAP1 POP JUMP INVALID LOG2 PUSH5 0x6970667358 0x22 SLT KECCAK256 0xED 0xD3 ISZERO CALL DUP13 0x49 LOG2 0xD8 0xB7 0xDB 0x25 SWAP1 CODECOPY PUSH28 0x3D3ECC28624B91ADBF7CA2916A4BD0651D6564736F6C634300080D00 CALLER "
    },
    "gasEstimates": {
      "creation": {
        "codeDepositCost": "488000",
        "executionCost": "24735",
        "totalCost": "512735"
      },
      "external": {
        "getAdds()": "infinite",
        "getTotalAdds()": "2281",
        "owner()": "2327",
        "placeAdd(string,string,string)": "infinite",
        "totalAds()": "2339"
      }
    },
    "methodIdentifiers": {
      "getAdds()": "ae613705",
      "getTotalAdds()": "9f34fa93",
      "owner()": "8da5cb5b",
      "placeAdd(string,string,string)": "97b116aa",
      "totalAds()": "f65bcfd6"
    }
  },
  "storageLayout": {
    "storage": [
      {
        "astId": 3,
        "contract": "Contract.sol:MyContract",
        "label": "totalAds",
        "offset": 0,
        "slot": "0",
        "type": "t_uint256"
      },
      {
        "astId": 5,
        "contract": "Contract.sol:MyContract",
        "label": "owner",
        "offset": 0,
        "slot": "1",
        "type": "t_address_payable"
      },
      {
        "astId": 44,
        "contract": "Contract.sol:MyContract",
        "label": "adds",
        "offset": 0,
        "slot": "2",
        "type": "t_array(t_struct(Add)40_storage)dyn_storage"
      }
    ],
    "types": {
      "t_address": {
        "encoding": "inplace",
        "label": "address",
        "numberOfBytes": "20"
      },
      "t_address_payable": {
        "encoding": "inplace",
        "label": "address payable",
        "numberOfBytes": "20"
      },
      "t_array(t_struct(Add)40_storage)dyn_storage": {
        "base": "t_struct(Add)40_storage",
        "encoding": "dynamic_array",
        "label": "struct MyContract.Add[]",
        "numberOfBytes": "32"
      },
      "t_string_storage": {
        "encoding": "bytes",
        "label": "string",
        "numberOfBytes": "32"
      },
      "t_struct(Add)40_storage": {
        "encoding": "inplace",
        "label": "struct MyContract.Add",
        "members": [
          {
            "astId": 31,
            "contract": "Contract.sol:MyContract",
            "label": "timestamp",
            "offset": 0,
            "slot": "0",
            "type": "t_uint256"
          },
          {
            "astId": 33,
            "contract": "Contract.sol:MyContract",
            "label": "name",
            "offset": 0,
            "slot": "1",
            "type": "t_string_storage"
          },
          {
            "astId": 35,
            "contract": "Contract.sol:MyContract",
            "label": "message",
            "offset": 0,
            "slot": "2",
            "type": "t_string_storage"
          },
          {
            "astId": 37,
            "contract": "Contract.sol:MyContract",
            "label": "image",
            "offset": 0,
            "slot": "3",
            "type": "t_string_storage"
          },
          {
            "astId": 39,
            "contract": "Contract.sol:MyContract",
            "label": "sender",
            "offset": 0,
            "slot": "4",
            "type": "t_address"
          }
        ],
        "numberOfBytes": "160"
      },
      "t_uint256": {
        "encoding": "inplace",
        "label": "uint256",
        "numberOfBytes": "32"
      }
    }
  },
  "userdoc": {
    "kind": "user",
    "methods": {},
    "version": 1
  }
}